{
  "contractName": "TaskList",
  "abi": [
    {
      "anonymous": false,
      "inputs": [
        {
          "indexed": false,
          "internalType": "uint256",
          "name": "id",
          "type": "uint256"
        },
        {
          "indexed": false,
          "internalType": "string",
          "name": "title",
          "type": "string"
        },
        {
          "indexed": false,
          "internalType": "enum TaskList.State",
          "name": "state",
          "type": "uint8"
        },
        {
          "indexed": false,
          "internalType": "address[]",
          "name": "validators",
          "type": "address[]"
        }
      ],
      "name": "TaskCreated",
      "type": "event"
    },
    {
      "anonymous": false,
      "inputs": [
        {
          "indexed": false,
          "internalType": "uint8",
          "name": "id",
          "type": "uint8"
        },
        {
          "indexed": false,
          "internalType": "enum TaskList.State",
          "name": "state",
          "type": "uint8"
        }
      ],
      "name": "TaskState",
      "type": "event"
    },
    {
      "anonymous": false,
      "inputs": [
        {
          "indexed": false,
          "internalType": "bool",
          "name": "is_true",
          "type": "bool"
        }
      ],
      "name": "Test",
      "type": "event"
    },
    {
      "anonymous": false,
      "inputs": [
        {
          "indexed": false,
          "internalType": "uint8",
          "name": "task_id",
          "type": "uint8"
        },
        {
          "indexed": false,
          "internalType": "address",
          "name": "sender",
          "type": "address"
        },
        {
          "indexed": false,
          "internalType": "address",
          "name": "receiver",
          "type": "address"
        },
        {
          "indexed": false,
          "internalType": "uint256",
          "name": "amount",
          "type": "uint256"
        }
      ],
      "name": "taskFunded",
      "type": "event"
    },
    {
      "anonymous": false,
      "inputs": [
        {
          "indexed": false,
          "internalType": "uint8",
          "name": "task_id",
          "type": "uint8"
        },
        {
          "indexed": false,
          "internalType": "address",
          "name": "validator",
          "type": "address"
        }
      ],
      "name": "validatorAdded",
      "type": "event"
    },
    {
      "anonymous": false,
      "inputs": [
        {
          "indexed": false,
          "internalType": "uint8",
          "name": "task_id",
          "type": "uint8"
        },
        {
          "indexed": false,
          "internalType": "address",
          "name": "worker",
          "type": "address"
        }
      ],
      "name": "workerAdded",
      "type": "event"
    },
    {
      "constant": true,
      "inputs": [],
      "name": "task_count",
      "outputs": [
        {
          "internalType": "uint8",
          "name": "",
          "type": "uint8"
        }
      ],
      "payable": false,
      "stateMutability": "view",
      "type": "function"
    },
    {
      "constant": true,
      "inputs": [
        {
          "internalType": "uint256",
          "name": "",
          "type": "uint256"
        }
      ],
      "name": "tasks",
      "outputs": [
        {
          "internalType": "uint8",
          "name": "id",
          "type": "uint8"
        },
        {
          "internalType": "string",
          "name": "title",
          "type": "string"
        },
        {
          "internalType": "string",
          "name": "description",
          "type": "string"
        },
        {
          "internalType": "enum TaskList.State",
          "name": "state",
          "type": "uint8"
        },
        {
          "internalType": "uint256",
          "name": "deadline",
          "type": "uint256"
        },
        {
          "internalType": "uint8",
          "name": "rating",
          "type": "uint8"
        },
        {
          "internalType": "contract Escrow",
          "name": "escrow",
          "type": "address"
        }
      ],
      "payable": false,
      "stateMutability": "view",
      "type": "function"
    },
    {
      "constant": false,
      "inputs": [
        {
          "internalType": "string",
          "name": "_title",
          "type": "string"
        },
        {
          "internalType": "string",
          "name": "_description",
          "type": "string"
        }
      ],
      "name": "createTask",
      "outputs": [],
      "payable": false,
      "stateMutability": "nonpayable",
      "type": "function"
    },
    {
      "constant": true,
      "inputs": [
        {
          "internalType": "uint8",
          "name": "_id",
          "type": "uint8"
        }
      ],
      "name": "getValidators",
      "outputs": [
        {
          "internalType": "address[]",
          "name": "",
          "type": "address[]"
        }
      ],
      "payable": false,
      "stateMutability": "view",
      "type": "function"
    },
    {
      "constant": false,
      "inputs": [
        {
          "internalType": "uint8",
          "name": "_task_id",
          "type": "uint8"
        },
        {
          "internalType": "address",
          "name": "_validator",
          "type": "address"
        }
      ],
      "name": "addValidator",
      "outputs": [],
      "payable": false,
      "stateMutability": "nonpayable",
      "type": "function"
    },
    {
      "constant": false,
      "inputs": [
        {
          "internalType": "uint8",
          "name": "_task_id",
          "type": "uint8"
        },
        {
          "internalType": "address",
          "name": "_worker",
          "type": "address"
        }
      ],
      "name": "addWorker",
      "outputs": [],
      "payable": false,
      "stateMutability": "nonpayable",
      "type": "function"
    },
    {
      "constant": false,
      "inputs": [
        {
          "internalType": "uint8",
          "name": "_task_id",
          "type": "uint8"
        }
      ],
      "name": "fundTaskEscrow",
      "outputs": [],
      "payable": true,
      "stateMutability": "payable",
      "type": "function"
    },
    {
      "constant": true,
      "inputs": [
        {
          "internalType": "uint8",
          "name": "_task_id",
          "type": "uint8"
        }
      ],
      "name": "getTaskDeposit",
      "outputs": [
        {
          "internalType": "uint256",
          "name": "",
          "type": "uint256"
        }
      ],
      "payable": false,
      "stateMutability": "view",
      "type": "function"
    },
    {
      "constant": false,
      "inputs": [
        {
          "internalType": "uint256",
          "name": "_id",
          "type": "uint256"
        }
      ],
      "name": "acceptTask",
      "outputs": [],
      "payable": false,
      "stateMutability": "nonpayable",
      "type": "function"
    },
    {
      "constant": false,
      "inputs": [
        {
          "internalType": "uint256",
          "name": "_id",
          "type": "uint256"
        }
      ],
      "name": "completeTask",
      "outputs": [],
      "payable": false,
      "stateMutability": "nonpayable",
      "type": "function"
    },
    {
      "constant": false,
      "inputs": [
        {
          "internalType": "uint256",
          "name": "_id",
          "type": "uint256"
        }
      ],
      "name": "reviewTask",
      "outputs": [],
      "payable": false,
      "stateMutability": "nonpayable",
      "type": "function"
    },
    {
      "constant": false,
      "inputs": [
        {
          "internalType": "uint8",
          "name": "_id",
          "type": "uint8"
        }
      ],
      "name": "toggleStarted",
      "outputs": [],
      "payable": false,
      "stateMutability": "nonpayable",
      "type": "function"
    }
  ],
  "bytecode": "0x608060405260008060006101000a81548160ff021916908360ff160217905550604051806101600160405280600060ff168152602001600160ff168152602001600260ff168152602001600360ff168152602001600460ff168152602001600560ff168152602001600660ff168152602001600760ff168152602001600860ff168152602001600960ff168152602001600a60ff16815250600190600b620000a9929190620000be565b50348015620000b757600080fd5b506200019f565b82805482825590600052602060002090601f01602090048101928215620001595791602002820160005b838211156200012857835183826101000a81548160ff021916908360ff1602179055509260200192600101602081600001049283019260010302620000e8565b8015620001575782816101000a81549060ff021916905560010160208160000104928301926001030262000128565b505b5090506200016891906200016c565b5090565b6200019c91905b808211156200019857600081816101000a81549060ff02191690555060010162000173565b5090565b90565b61281780620001af6000396000f3fe6080604052600436106100a75760003560e01c80638d977672116100645780638d977672146103c4578063b34352511461054d578063ceda812c1461057e578063d589a274146105bc578063e06a0a2a146105ed578063e1e295581461064b576100a7565b80631bf6912d146100ac578063292a4585146100e75780633272d36d14610246578063546557b0146102985780637a40bbef146102f65780638cc05eda14610331575b600080fd5b3480156100b857600080fd5b506100e5600480360360208110156100cf57600080fd5b8101908080359060200190929190505050610686565b005b3480156100f357600080fd5b506102446004803603604081101561010a57600080fd5b810190808035906020019064010000000081111561012757600080fd5b82018360208201111561013957600080fd5b8035906020019184600183028401116401000000008311171561015b57600080fd5b91908080601f016020809104026020016040519081016040528093929190818152602001838380828437600081840152601f19601f820116905080830192505050505050509192919290803590602001906401000000008111156101be57600080fd5b8201836020820111156101d057600080fd5b803590602001918460018302840111640100000000831117156101f257600080fd5b91908080601f016020809104026020016040519081016040528093929190818152602001838380828437600081840152601f19601f820116905080830192505050505050509192919290505050610689565b005b34801561025257600080fd5b506102826004803603602081101561026957600080fd5b81019080803560ff169060200190929190505050610b58565b6040518082815260200191505060405180910390f35b3480156102a457600080fd5b506102f4600480360360408110156102bb57600080fd5b81019080803560ff169060200190929190803573ffffffffffffffffffffffffffffffffffffffff169060200190929190505050610f8a565b005b34801561030257600080fd5b5061032f6004803603602081101561031957600080fd5b810190808035906020019092919050505061113d565b005b34801561033d57600080fd5b5061036d6004803603602081101561035457600080fd5b81019080803560ff169060200190929190505050611140565b6040518080602001828103825283818151815260200191508051906020019060200280838360005b838110156103b0578082015181840152602081019050610395565b505050509050019250505060405180910390f35b3480156103d057600080fd5b506103fd600480360360208110156103e757600080fd5b81019080803590602001909291905050506111e7565b604051808860ff1660ff168152602001806020018060200187600381111561042157fe5b60ff1681526020018681526020018560ff1660ff1681526020018473ffffffffffffffffffffffffffffffffffffffff1673ffffffffffffffffffffffffffffffffffffffff168152602001838103835289818151815260200191508051906020019080838360005b838110156104a557808201518184015260208101905061048a565b50505050905090810190601f1680156104d25780820380516001836020036101000a031916815260200191505b50838103825288818151815260200191508051906020019080838360005b8381101561050b5780820151818401526020810190506104f0565b50505050905090810190601f1680156105385780820380516001836020036101000a031916815260200191505b50995050505050505050505060405180910390f35b34801561055957600080fd5b506105626113a0565b604051808260ff1660ff16815260200191505060405180910390f35b34801561058a57600080fd5b506105ba600480360360208110156105a157600080fd5b81019080803560ff1690602001909291905050506113b2565b005b6105eb600480360360208110156105d257600080fd5b81019080803560ff16906020019092919050505061145a565b005b3480156105f957600080fd5b506106496004803603604081101561061057600080fd5b81019080803560ff169060200190929190803573ffffffffffffffffffffffffffffffffffffffff169060200190929190505050611655565b005b34801561065757600080fd5b506106846004803603602081101561066e57600080fd5b8101908080359060200190929190505050611862565b005b50565b60008060009054906101000a900460ff1690506106a4611865565b6040518061012001604052808360ff168152602001858152602001848152602001600060038111156106d257fe5b815260200160008152602001600060ff16815260200160006040519080825280602002602001820160405280156107185781602001602082028038833980820191505090505b508152602001600060405190808252806020026020018201604052801561074e5781602001602082028038833980820191505090505b508152602001604051610760906118d8565b604051809103906000f08015801561077c573d6000803e3d6000fd5b5073ffffffffffffffffffffffffffffffffffffffff16815250905080600260008460ff16815260200190815260200160002060008201518160000160006101000a81548160ff021916908360ff16021790555060208201518160010190805190602001906107ec9291906118e5565b5060408201518160020190805190602001906108099291906118e5565b5060608201518160030160006101000a81548160ff0219169083600381111561082e57fe5b02179055506080820151816004015560a08201518160050160006101000a81548160ff021916908360ff16021790555060c082015181600701908051906020019061087a929190611965565b5060e0820151816009019080519060200190610897929190611965565b5061010082015181600a0160006101000a81548173ffffffffffffffffffffffffffffffffffffffff021916908373ffffffffffffffffffffffffffffffffffffffff16021790555090505060008081819054906101000a900460ff168092919060010191906101000a81548160ff021916908360ff16021790555050600260008360ff1681526020019081526020016000206007013390806001815401808255809150509060018203906000526020600020016000909192909190916101000a81548173ffffffffffffffffffffffffffffffffffffffff021916908373ffffffffffffffffffffffffffffffffffffffff160217905550506001600260008460ff16815260200190815260200160002060060160003373ffffffffffffffffffffffffffffffffffffffff1673ffffffffffffffffffffffffffffffffffffffff16815260200190815260200160002060006101000a81548160ff0219169083151502179055507fed590dc695d4f7e656b37899068d46e3eafc741b38eb6a6761d919deba842bc682856000600260008760ff168152602001908152602001600020600701604051808560ff16815260200180602001846003811115610a5b57fe5b60ff16815260200180602001838103835286818151815260200191508051906020019080838360005b83811015610a9f578082015181840152602081019050610a84565b50505050905090810190601f168015610acc5780820380516001836020036101000a031916815260200191505b508381038252848181548152602001915080548015610b4057602002820191906000526020600020905b8160009054906101000a900473ffffffffffffffffffffffffffffffffffffffff1673ffffffffffffffffffffffffffffffffffffffff1681526020019060010190808311610af6575b5050965050505050505060405180910390a150505050565b6000610b62611865565b600260008460ff168152602001908152602001600020604051806101200160405290816000820160009054906101000a900460ff1660ff1660ff168152602001600182018054600181600116156101000203166002900480601f016020809104026020016040519081016040528092919081815260200182805460018160011615610100020316600290048015610c3a5780601f10610c0f57610100808354040283529160200191610c3a565b820191906000526020600020905b815481529060010190602001808311610c1d57829003601f168201915b50505050508152602001600282018054600181600116156101000203166002900480601f016020809104026020016040519081016040528092919081815260200182805460018160011615610100020316600290048015610cdc5780601f10610cb157610100808354040283529160200191610cdc565b820191906000526020600020905b815481529060010190602001808311610cbf57829003601f168201915b505050505081526020016003820160009054906101000a900460ff166003811115610d0357fe5b6003811115610d0e57fe5b8152602001600482015481526020016005820160009054906101000a900460ff1660ff1660ff16815260200160078201805480602002602001604051908101604052809291908181526020018280548015610dbe57602002820191906000526020600020905b8160009054906101000a900473ffffffffffffffffffffffffffffffffffffffff1673ffffffffffffffffffffffffffffffffffffffff1681526020019060010190808311610d74575b5050505050815260200160098201805480602002602001604051908101604052809291908181526020018280548015610e4c57602002820191906000526020600020905b8160009054906101000a900473ffffffffffffffffffffffffffffffffffffffff1673ffffffffffffffffffffffffffffffffffffffff1681526020019060010190808311610e02575b50505050508152602001600a820160009054906101000a900473ffffffffffffffffffffffffffffffffffffffff1673ffffffffffffffffffffffffffffffffffffffff1673ffffffffffffffffffffffffffffffffffffffff1681525050905080610100015173ffffffffffffffffffffffffffffffffffffffff1663e3a9db1a8260e00151600081518110610edf57fe5b60200260200101516040518263ffffffff1660e01b8152600401808273ffffffffffffffffffffffffffffffffffffffff1673ffffffffffffffffffffffffffffffffffffffff16815260200191505060206040518083038186803b158015610f4757600080fd5b505afa158015610f5b573d6000803e3d6000fd5b505050506040513d6020811015610f7157600080fd5b8101908080519060200190929190505050915050919050565b81600260008260ff16815260200190815260200160002060060160003373ffffffffffffffffffffffffffffffffffffffff1673ffffffffffffffffffffffffffffffffffffffff16815260200190815260200160002060009054906101000a900460ff16611044576040517f08c379a00000000000000000000000000000000000000000000000000000000081526004018080602001828103825260268152602001806127bd6026913960400191505060405180910390fd5b6000600260008560ff1681526020019081526020016000209050806009018390806001815401808255809150509060018203906000526020600020016000909192909190916101000a81548173ffffffffffffffffffffffffffffffffffffffff021916908373ffffffffffffffffffffffffffffffffffffffff160217905550507ff26e6157384e61a32703387ba4422727904864dcf0e0beea4b607d11a00676498484604051808360ff1660ff1681526020018273ffffffffffffffffffffffffffffffffffffffff1673ffffffffffffffffffffffffffffffffffffffff1681526020019250505060405180910390a150505050565b50565b6060600260008360ff1681526020019081526020016000206007018054806020026020016040519081016040528092919081815260200182805480156111db57602002820191906000526020600020905b8160009054906101000a900473ffffffffffffffffffffffffffffffffffffffff1673ffffffffffffffffffffffffffffffffffffffff1681526020019060010190808311611191575b50505050509050919050565b60026020528060005260406000206000915090508060000160009054906101000a900460ff1690806001018054600181600116156101000203166002900480601f0160208091040260200160405190810160405280929190818152602001828054600181600116156101000203166002900480156112a65780601f1061127b576101008083540402835291602001916112a6565b820191906000526020600020905b81548152906001019060200180831161128957829003601f168201915b505050505090806002018054600181600116156101000203166002900480601f0160208091040260200160405190810160405280929190818152602001828054600181600116156101000203166002900480156113445780601f1061131957610100808354040283529160200191611344565b820191906000526020600020905b81548152906001019060200180831161132757829003601f168201915b5050505050908060030160009054906101000a900460ff16908060040154908060050160009054906101000a900460ff169080600a0160009054906101000a900473ffffffffffffffffffffffffffffffffffffffff16905087565b6000809054906101000a900460ff1681565b6000600260008360ff168152602001908152602001600020905060018160030160006101000a81548160ff021916908360038111156113ed57fe5b02179055507f7297a3ecec23f9c0ce7ae4bb6605545c7270ad1985ee7f625c426ea8325356b9828260030160009054906101000a900460ff16604051808360ff1660ff16815260200182600381111561144257fe5b60ff1681526020019250505060405180910390a15050565b6000600260008360ff168152602001908152602001600020905080600a0160009054906101000a900473ffffffffffffffffffffffffffffffffffffffff1673ffffffffffffffffffffffffffffffffffffffff1663f340fa0134836009016000815481106114c557fe5b9060005260206000200160009054906101000a900473ffffffffffffffffffffffffffffffffffffffff166040518363ffffffff1660e01b8152600401808273ffffffffffffffffffffffffffffffffffffffff1673ffffffffffffffffffffffffffffffffffffffff1681526020019150506000604051808303818588803b15801561155157600080fd5b505af1158015611565573d6000803e3d6000fd5b50505050507fcda5eeafa952e3fdd7a0e022ea09c83508806df2b916c7b784ea0dfb7bc2da2c82338360090160008154811061159d57fe5b9060005260206000200160009054906101000a900473ffffffffffffffffffffffffffffffffffffffff1634604051808560ff1660ff1681526020018473ffffffffffffffffffffffffffffffffffffffff1673ffffffffffffffffffffffffffffffffffffffff1681526020018373ffffffffffffffffffffffffffffffffffffffff1673ffffffffffffffffffffffffffffffffffffffff16815260200182815260200194505050505060405180910390a15050565b81600260008260ff16815260200190815260200160002060060160003373ffffffffffffffffffffffffffffffffffffffff1673ffffffffffffffffffffffffffffffffffffffff16815260200190815260200160002060009054906101000a900460ff1661170f576040517f08c379a00000000000000000000000000000000000000000000000000000000081526004018080602001828103825260268152602001806127bd6026913960400191505060405180910390fd5b6000600260008560ff1681526020019081526020016000209050806007018390806001815401808255809150509060018203906000526020600020016000909192909190916101000a81548173ffffffffffffffffffffffffffffffffffffffff021916908373ffffffffffffffffffffffffffffffffffffffff1602179055505060018160060160008573ffffffffffffffffffffffffffffffffffffffff1673ffffffffffffffffffffffffffffffffffffffff16815260200190815260200160002060006101000a81548160ff0219169083151502179055507f3a092f075833e4228e6f48d3dcbc28cdb68d243278dcd79cfaa17473e2f601408484604051808360ff1660ff1681526020018273ffffffffffffffffffffffffffffffffffffffff1673ffffffffffffffffffffffffffffffffffffffff1681526020019250505060405180910390a150505050565b50565b604051806101200160405280600060ff16815260200160608152602001606081526020016000600381111561189657fe5b815260200160008152602001600060ff1681526020016060815260200160608152602001600073ffffffffffffffffffffffffffffffffffffffff1681525090565b610d6580611a5883390190565b828054600181600116156101000203166002900490600052602060002090601f016020900481019282601f1061192657805160ff1916838001178555611954565b82800160010185558215611954579182015b82811115611953578251825591602001919060010190611938565b5b50905061196191906119ef565b5090565b8280548282559060005260206000209081019282156119de579160200282015b828111156119dd5782518260006101000a81548173ffffffffffffffffffffffffffffffffffffffff021916908373ffffffffffffffffffffffffffffffffffffffff16021790555091602001919060010190611985565b5b5090506119eb9190611a14565b5090565b611a1191905b80821115611a0d5760008160009055506001016119f5565b5090565b90565b611a5491905b80821115611a5057600081816101000a81549073ffffffffffffffffffffffffffffffffffffffff021916905550600101611a1a565b5090565b9056fe60806040526100126100da60201b60201c565b6000806101000a81548173ffffffffffffffffffffffffffffffffffffffff021916908373ffffffffffffffffffffffffffffffffffffffff1602179055507f4101e71e974f68df5e9730cc223280b41654676bbb052cdcc735c3337e64d2d96000809054906101000a900473ffffffffffffffffffffffffffffffffffffffff16604051808273ffffffffffffffffffffffffffffffffffffffff1673ffffffffffffffffffffffffffffffffffffffff16815260200191505060405180910390a16100e2565b600033905090565b610c74806100f16000396000f3fe6080604052600436106100555760003560e01c80632348238c1461005a57806351cff8d9146100ab5780636809691a146100fc578063c6dbdf611461014d578063e3a9db1a146101a4578063f340fa0114610209575b600080fd5b34801561006657600080fd5b506100a96004803603602081101561007d57600080fd5b81019080803573ffffffffffffffffffffffffffffffffffffffff16906020019092919050505061024d565b005b3480156100b757600080fd5b506100fa600480360360208110156100ce57600080fd5b81019080803573ffffffffffffffffffffffffffffffffffffffff169060200190929190505050610446565b005b34801561010857600080fd5b5061014b6004803603602081101561011f57600080fd5b81019080803573ffffffffffffffffffffffffffffffffffffffff169060200190929190505050610614565b005b34801561015957600080fd5b506101626107c4565b604051808273ffffffffffffffffffffffffffffffffffffffff1673ffffffffffffffffffffffffffffffffffffffff16815260200191505060405180910390f35b3480156101b057600080fd5b506101f3600480360360208110156101c757600080fd5b81019080803573ffffffffffffffffffffffffffffffffffffffff1690602001909291905050506107ed565b6040518082815260200191505060405180910390f35b61024b6004803603602081101561021f57600080fd5b81019080803573ffffffffffffffffffffffffffffffffffffffff169060200190929190505050610836565b005b6000809054906101000a900473ffffffffffffffffffffffffffffffffffffffff1673ffffffffffffffffffffffffffffffffffffffff1661028d6109ce565b73ffffffffffffffffffffffffffffffffffffffff16146102f9576040517f08c379a000000000000000000000000000000000000000000000000000000000815260040180806020018281038252602c815260200180610c14602c913960400191505060405180910390fd5b600073ffffffffffffffffffffffffffffffffffffffff168173ffffffffffffffffffffffffffffffffffffffff16141561037f576040517f08c379a000000000000000000000000000000000000000000000000000000000815260040180806020018281038252602a815260200180610bea602a913960400191505060405180910390fd5b806000806101000a81548173ffffffffffffffffffffffffffffffffffffffff021916908373ffffffffffffffffffffffffffffffffffffffff1602179055507f4101e71e974f68df5e9730cc223280b41654676bbb052cdcc735c3337e64d2d96000809054906101000a900473ffffffffffffffffffffffffffffffffffffffff16604051808273ffffffffffffffffffffffffffffffffffffffff1673ffffffffffffffffffffffffffffffffffffffff16815260200191505060405180910390a150565b6000809054906101000a900473ffffffffffffffffffffffffffffffffffffffff1673ffffffffffffffffffffffffffffffffffffffff166104866109ce565b73ffffffffffffffffffffffffffffffffffffffff16146104f2576040517f08c379a000000000000000000000000000000000000000000000000000000000815260040180806020018281038252602c815260200180610c14602c913960400191505060405180910390fd5b6000600160008373ffffffffffffffffffffffffffffffffffffffff1673ffffffffffffffffffffffffffffffffffffffff1681526020019081526020016000205490506000600160008473ffffffffffffffffffffffffffffffffffffffff1673ffffffffffffffffffffffffffffffffffffffff168152602001908152602001600020819055508173ffffffffffffffffffffffffffffffffffffffff166108fc829081150290604051600060405180830381858888f193505050501580156105c1573d6000803e3d6000fd5b508173ffffffffffffffffffffffffffffffffffffffff167f7084f5476618d8e60b11ef0d7d3f06914655adb8793e28ff7f018d4c76d505d5826040518082815260200191505060405180910390a25050565b6000809054906101000a900473ffffffffffffffffffffffffffffffffffffffff1673ffffffffffffffffffffffffffffffffffffffff166106546109ce565b73ffffffffffffffffffffffffffffffffffffffff16146106c0576040517f08c379a000000000000000000000000000000000000000000000000000000000815260040180806020018281038252602c815260200180610c14602c913960400191505060405180910390fd5b6000600160008373ffffffffffffffffffffffffffffffffffffffff1673ffffffffffffffffffffffffffffffffffffffff1681526020019081526020016000205490506000600160008473ffffffffffffffffffffffffffffffffffffffff1673ffffffffffffffffffffffffffffffffffffffff16815260200190815260200160002081905550610772818373ffffffffffffffffffffffffffffffffffffffff166109d690919063ffffffff16565b8173ffffffffffffffffffffffffffffffffffffffff167f7084f5476618d8e60b11ef0d7d3f06914655adb8793e28ff7f018d4c76d505d5826040518082815260200191505060405180910390a25050565b60008060009054906101000a900473ffffffffffffffffffffffffffffffffffffffff16905090565b6000600160008373ffffffffffffffffffffffffffffffffffffffff1673ffffffffffffffffffffffffffffffffffffffff168152602001908152602001600020549050919050565b6000809054906101000a900473ffffffffffffffffffffffffffffffffffffffff1673ffffffffffffffffffffffffffffffffffffffff166108766109ce565b73ffffffffffffffffffffffffffffffffffffffff16146108e2576040517f08c379a000000000000000000000000000000000000000000000000000000000815260040180806020018281038252602c815260200180610c14602c913960400191505060405180910390fd5b600034905061093981600160008573ffffffffffffffffffffffffffffffffffffffff1673ffffffffffffffffffffffffffffffffffffffff16815260200190815260200160002054610b2790919063ffffffff16565b600160008473ffffffffffffffffffffffffffffffffffffffff1673ffffffffffffffffffffffffffffffffffffffff168152602001908152602001600020819055508173ffffffffffffffffffffffffffffffffffffffff167f2da466a7b24304f47e87fa2e1e5a81b9831ce54fec19055ce277ca2f39ba42c4826040518082815260200191505060405180910390a25050565b600033905090565b803073ffffffffffffffffffffffffffffffffffffffff16311015610a63576040517f08c379a000000000000000000000000000000000000000000000000000000000815260040180806020018281038252601d8152602001807f416464726573733a20696e73756666696369656e742062616c616e636500000081525060200191505060405180910390fd5b60008273ffffffffffffffffffffffffffffffffffffffff168260405180600001905060006040518083038185875af1925050503d8060008114610ac3576040519150601f19603f3d011682016040523d82523d6000602084013e610ac8565b606091505b5050905080610b22576040517f08c379a000000000000000000000000000000000000000000000000000000000815260040180806020018281038252603a815260200180610bb0603a913960400191505060405180910390fd5b505050565b600080828401905083811015610ba5576040517f08c379a000000000000000000000000000000000000000000000000000000000815260040180806020018281038252601b8152602001807f536166654d6174683a206164646974696f6e206f766572666c6f77000000000081525060200191505060405180910390fd5b809150509291505056fe416464726573733a20756e61626c6520746f2073656e642076616c75652c20726563697069656e74206d617920686176652072657665727465645365636f6e646172793a206e6577207072696d61727920697320746865207a65726f20616464726573735365636f6e646172793a2063616c6c6572206973206e6f7420746865207072696d617279206163636f756e74a265627a7a72315820112b12638fa8a59fded75a03b3739812cefc91002d8123d3c5de50c6d39bdcfb64736f6c634300050c003263616c6c6572206973206e6f7420612076616c696461746f72206f662074686973207461736ba265627a7a72315820d7b726e57fd245fbe3cf84fd99a774690f8e7b6914cb04fd3e067751e0dbe92264736f6c634300050c0032",
  "source": "pragma solidity ^0.5.11;\n\nimport '../node_modules/@openzeppelin/contracts/payment/escrow/Escrow.sol';\n\ncontract TaskList {\n\tuint8 public task_count = 0;\n\tenum State { created, accepted, completed, reviewed }\n\tuint8[] ratings = [0, 1, 2, 3, 4, 5, 6, 7, 8, 9, 10];\n\t// enum Difficulty { standard, advanced , expert }\n\t// enum Uncertainity { clear, uncertain, unknown }\n\n\tstruct Task {\n\t\tuint8 id;\n\t\tstring title;\n\t\tstring description;\n\t\tState state;\n\t\tuint deadline;\n\t\tuint8 rating;\n\t\tmapping(address => bool) validators_map;\n\t\taddress[] validators;\n\t\tmapping(address => bool) workers_map;\n\t\taddress[] workers;\n\t\tEscrow escrow;\n\t\t//uint predecessor_id;\n\t\t//uint successor_id;\n\t}\n\n\tmapping(uint => Task) public tasks;\n\n\tevent TaskCreated(\n\t\tuint id,\n\t\tstring title,\n\t\tState state,\n\t\taddress[] validators\n\t);\n\n\tevent Test(bool is_true);\n\n\tmodifier validatorsOnly(uint8 _id) {\n\t\t// checks that the sender is a validator of task\n\t\trequire(tasks[_id].validators_map[msg.sender], \"caller is not a validator of this task\");\n\t\t_;\n\t}\n\n\tevent TaskState(\n\t\tuint8 id,\n\t\tState state\n\t);\n\n\tevent validatorAdded(\n\t\tuint8 task_id,\n\t\taddress validator\n\t);\n\n\tevent workerAdded(\n\t\tuint8 task_id,\n\t\taddress worker\n\t);\n\n\tevent taskFunded(\n\t\tuint8 task_id,\n\t\taddress sender,\n\t\taddress receiver,\n\t\tuint256 amount\n\t);\n\n\tfunction createTask(string memory _title, string memory _description) public {\n\t\tuint8 _id = task_count;\n\t\tTask memory task = Task(_id, _title, _description, State.created, 0, 0, new address[](0), new address[](0), new Escrow());\n\t\t// https://medium.com/loom-network/ethereum-solidity-memory-vs-storage-how-to-initialize-an-array-inside-a-struct-184baf6aa2eb\n\t\ttasks[_id] = task;\n\t\ttask_count++;\n\t\ttasks[_id].validators.push(msg.sender);\n\t\ttasks[_id].validators_map[msg.sender] = true;\n\t\temit TaskCreated(_id, _title, State.created, tasks[_id].validators);\n\t}\n\n\tfunction getValidators(uint8 _id) public view returns (address[] memory) {\n\t\treturn tasks[_id].validators;\n\t}\n\n\tfunction addValidator(uint8 _task_id, address _validator) public validatorsOnly(_task_id) {\n\t\tTask storage _task = tasks[_task_id];\n\t\t_task.validators.push(_validator);\n\t\t_task.validators_map[_validator] = true;\n\t\temit validatorAdded(_task_id, _validator);\n\t}\n\n\tfunction addWorker(uint8 _task_id, address _worker) public validatorsOnly(_task_id) {\n\t\tTask storage _task = tasks[_task_id];\n\t\t_task.workers.push(_worker);\n\t\temit workerAdded(_task_id, _worker);\n\t}\n\n\tfunction fundTaskEscrow(uint8 _task_id) public payable {\n\t\t// stores funds for the given task its corresponding escrow\n\t\tTask storage _task = tasks[_task_id];\n\n\t\t_task.escrow.deposit.value(msg.value)(_task.workers[0]);\n\t\t// the 1st worker will get the payment -> add split payment later\n\t\temit taskFunded(_task_id, msg.sender, _task.workers[0], msg.value);\n\t}\n\n\tfunction getTaskDeposit(uint8 _task_id) public view returns (uint256) {\n\t\tTask memory _task = tasks[_task_id];\n\t\treturn _task.escrow.depositsOf(_task.workers[0]);\n\t}\n\n\tfunction acceptTask(uint _id) public {\n\n\t}\n\n\tfunction completeTask(uint _id) public {\n\n\t}\n\n\tfunction reviewTask(uint _id) public {\n\n\t}\n\n\tfunction toggleStarted(uint8 _id) public {\n\t\tTask storage _task = tasks[_id];\n\t\t_task.state = State.accepted;\n\t\t// tasks[_id] = _task;\n\t\temit TaskState(_id, _task.state);\n\t}\n\n}",
  "sourcePath": "/Users/pabrasey/Dropbox/01_Formation/ETHZ/01_Master/02_Projects/Master Thesis/Production/Code/ipd_tasks_react/contracts/TaskList.sol",
  "compiler": {
    "name": "solc",
    "version": "0.5.12+commit.7709ece9.Emscripten.clang"
  },
  "schemaVersion": "3.0.19",
  "updatedAt": "2019-12-16T09:58:32.193Z",
  "networkType": "ethereum",
  "devdoc": {
    "methods": {}
  },
  "userdoc": {
    "methods": {}
  }
}