{
  "contractName": "TaskList",
  "abi": [
    {
      "inputs": [
        {
          "internalType": "address",
          "name": "_ppctoken_address",
          "type": "address"
        }
      ],
      "payable": false,
      "stateMutability": "nonpayable",
      "type": "constructor"
    },
    {
      "anonymous": false,
      "inputs": [
        {
          "indexed": false,
          "internalType": "uint256",
          "name": "id",
          "type": "uint256"
        },
        {
          "indexed": false,
          "internalType": "string",
          "name": "title",
          "type": "string"
        },
        {
          "indexed": false,
          "internalType": "enum TaskList.State",
          "name": "state",
          "type": "uint8"
        },
        {
          "indexed": false,
          "internalType": "address[]",
          "name": "validators",
          "type": "address[]"
        }
      ],
      "name": "TaskCreated",
      "type": "event"
    },
    {
      "anonymous": false,
      "inputs": [
        {
          "indexed": false,
          "internalType": "uint8",
          "name": "id",
          "type": "uint8"
        },
        {
          "indexed": false,
          "internalType": "enum TaskList.State",
          "name": "state",
          "type": "uint8"
        }
      ],
      "name": "TaskState",
      "type": "event"
    },
    {
      "anonymous": false,
      "inputs": [
        {
          "indexed": false,
          "internalType": "bool",
          "name": "is_true",
          "type": "bool"
        }
      ],
      "name": "Test",
      "type": "event"
    },
    {
      "anonymous": false,
      "inputs": [
        {
          "indexed": false,
          "internalType": "uint8",
          "name": "task_id",
          "type": "uint8"
        },
        {
          "indexed": false,
          "internalType": "address",
          "name": "sender",
          "type": "address"
        },
        {
          "indexed": false,
          "internalType": "address",
          "name": "receiver",
          "type": "address"
        },
        {
          "indexed": false,
          "internalType": "uint256",
          "name": "amount",
          "type": "uint256"
        }
      ],
      "name": "taskFunded",
      "type": "event"
    },
    {
      "anonymous": false,
      "inputs": [
        {
          "indexed": false,
          "internalType": "uint8",
          "name": "task_id",
          "type": "uint8"
        },
        {
          "indexed": false,
          "internalType": "address",
          "name": "validator",
          "type": "address"
        }
      ],
      "name": "validatorAdded",
      "type": "event"
    },
    {
      "anonymous": false,
      "inputs": [
        {
          "indexed": false,
          "internalType": "uint8",
          "name": "task_id",
          "type": "uint8"
        },
        {
          "indexed": false,
          "internalType": "address",
          "name": "worker",
          "type": "address"
        }
      ],
      "name": "workerAdded",
      "type": "event"
    },
    {
      "constant": true,
      "inputs": [],
      "name": "task_count",
      "outputs": [
        {
          "internalType": "uint8",
          "name": "",
          "type": "uint8"
        }
      ],
      "payable": false,
      "stateMutability": "view",
      "type": "function"
    },
    {
      "constant": true,
      "inputs": [
        {
          "internalType": "uint256",
          "name": "",
          "type": "uint256"
        }
      ],
      "name": "tasks",
      "outputs": [
        {
          "internalType": "uint8",
          "name": "id",
          "type": "uint8"
        },
        {
          "internalType": "string",
          "name": "title",
          "type": "string"
        },
        {
          "internalType": "string",
          "name": "description",
          "type": "string"
        },
        {
          "internalType": "enum TaskList.State",
          "name": "state",
          "type": "uint8"
        },
        {
          "internalType": "uint256",
          "name": "deadline",
          "type": "uint256"
        },
        {
          "internalType": "uint8",
          "name": "rating",
          "type": "uint8"
        },
        {
          "internalType": "contract Escrow",
          "name": "escrow",
          "type": "address"
        }
      ],
      "payable": false,
      "stateMutability": "view",
      "type": "function"
    },
    {
      "constant": false,
      "inputs": [
        {
          "internalType": "string",
          "name": "_title",
          "type": "string"
        },
        {
          "internalType": "string",
          "name": "_description",
          "type": "string"
        }
      ],
      "name": "createTask",
      "outputs": [],
      "payable": false,
      "stateMutability": "nonpayable",
      "type": "function"
    },
    {
      "constant": true,
      "inputs": [
        {
          "internalType": "uint8",
          "name": "_id",
          "type": "uint8"
        }
      ],
      "name": "getValidators",
      "outputs": [
        {
          "internalType": "address[]",
          "name": "",
          "type": "address[]"
        }
      ],
      "payable": false,
      "stateMutability": "view",
      "type": "function"
    },
    {
      "constant": false,
      "inputs": [
        {
          "internalType": "uint8",
          "name": "_task_id",
          "type": "uint8"
        },
        {
          "internalType": "address",
          "name": "_validator",
          "type": "address"
        }
      ],
      "name": "addValidator",
      "outputs": [],
      "payable": false,
      "stateMutability": "nonpayable",
      "type": "function"
    },
    {
      "constant": false,
      "inputs": [
        {
          "internalType": "uint8",
          "name": "_task_id",
          "type": "uint8"
        },
        {
          "internalType": "address",
          "name": "_worker",
          "type": "address"
        }
      ],
      "name": "addWorker",
      "outputs": [],
      "payable": false,
      "stateMutability": "nonpayable",
      "type": "function"
    },
    {
      "constant": false,
      "inputs": [
        {
          "internalType": "uint8",
          "name": "_task_id",
          "type": "uint8"
        }
      ],
      "name": "fundTaskEscrow",
      "outputs": [],
      "payable": true,
      "stateMutability": "payable",
      "type": "function"
    },
    {
      "constant": true,
      "inputs": [
        {
          "internalType": "uint8",
          "name": "_task_id",
          "type": "uint8"
        }
      ],
      "name": "getTaskDeposit",
      "outputs": [
        {
          "internalType": "uint256",
          "name": "",
          "type": "uint256"
        }
      ],
      "payable": false,
      "stateMutability": "view",
      "type": "function"
    },
    {
      "constant": false,
      "inputs": [
        {
          "internalType": "uint8",
          "name": "_id",
          "type": "uint8"
        }
      ],
      "name": "toggleStarted",
      "outputs": [],
      "payable": false,
      "stateMutability": "nonpayable",
      "type": "function"
    }
  ],
  "bytecode": "0x608060405260008060006101000a81548160ff021916908360ff160217905550604051806101600160405280600060ff168152602001600160ff168152602001600260ff168152602001600360ff168152602001600460ff168152602001600560ff168152602001600660ff168152602001600760ff168152602001600860ff168152602001600960ff168152602001600a60ff16815250600190600b620000a992919062000136565b50348015620000b757600080fd5b50604051620029633803806200296383398181016040526020811015620000dd57600080fd5b810190808051906020019092919050505080600260006101000a81548173ffffffffffffffffffffffffffffffffffffffff021916908373ffffffffffffffffffffffffffffffffffffffff1602179055505062000217565b82805482825590600052602060002090601f01602090048101928215620001d15791602002820160005b83821115620001a057835183826101000a81548160ff021916908360ff160217905550926020019260010160208160000104928301926001030262000160565b8015620001cf5782816101000a81549060ff0219169055600101602081600001049283019260010302620001a0565b505b509050620001e09190620001e4565b5090565b6200021491905b808211156200021057600081816101000a81549060ff021916905550600101620001eb565b5090565b90565b61273c80620002276000396000f3fe6080604052600436106100865760003560e01c80638d977672116100595780638d9776721461032d578063b3435251146104b6578063ceda812c146104e7578063d589a27414610525578063e06a0a2a1461055657610086565b8063292a45851461008b5780633272d36d146101ea578063546557b01461023c5780638cc05eda1461029a575b600080fd5b34801561009757600080fd5b506101e8600480360360408110156100ae57600080fd5b81019080803590602001906401000000008111156100cb57600080fd5b8201836020820111156100dd57600080fd5b803590602001918460018302840111640100000000831117156100ff57600080fd5b91908080601f016020809104026020016040519081016040528093929190818152602001838380828437600081840152601f19601f8201169050808301925050505050505091929192908035906020019064010000000081111561016257600080fd5b82018360208201111561017457600080fd5b8035906020019184600183028401116401000000008311171561019657600080fd5b91908080601f016020809104026020016040519081016040528093929190818152602001838380828437600081840152601f19601f8201169050808301925050505050505091929192905050506105b4565b005b3480156101f657600080fd5b506102266004803603602081101561020d57600080fd5b81019080803560ff169060200190929190505050610a83565b6040518082815260200191505060405180910390f35b34801561024857600080fd5b506102986004803603604081101561025f57600080fd5b81019080803560ff169060200190929190803573ffffffffffffffffffffffffffffffffffffffff169060200190929190505050610eb5565b005b3480156102a657600080fd5b506102d6600480360360208110156102bd57600080fd5b81019080803560ff169060200190929190505050611068565b6040518080602001828103825283818151815260200191508051906020019060200280838360005b838110156103195780820151818401526020810190506102fe565b505050509050019250505060405180910390f35b34801561033957600080fd5b506103666004803603602081101561035057600080fd5b810190808035906020019092919050505061110f565b604051808860ff1660ff168152602001806020018060200187600381111561038a57fe5b60ff1681526020018681526020018560ff1660ff1681526020018473ffffffffffffffffffffffffffffffffffffffff1673ffffffffffffffffffffffffffffffffffffffff168152602001838103835289818151815260200191508051906020019080838360005b8381101561040e5780820151818401526020810190506103f3565b50505050905090810190601f16801561043b5780820380516001836020036101000a031916815260200191505b50838103825288818151815260200191508051906020019080838360005b83811015610474578082015181840152602081019050610459565b50505050905090810190601f1680156104a15780820380516001836020036101000a031916815260200191505b50995050505050505050505060405180910390f35b3480156104c257600080fd5b506104cb6112c8565b604051808260ff1660ff16815260200191505060405180910390f35b3480156104f357600080fd5b506105236004803603602081101561050a57600080fd5b81019080803560ff1690602001909291905050506112da565b005b6105546004803603602081101561053b57600080fd5b81019080803560ff169060200190929190505050611382565b005b34801561056257600080fd5b506105b26004803603604081101561057957600080fd5b81019080803560ff169060200190929190803573ffffffffffffffffffffffffffffffffffffffff16906020019092919050505061157d565b005b60008060009054906101000a900460ff1690506105cf61178a565b6040518061012001604052808360ff168152602001858152602001848152602001600060038111156105fd57fe5b815260200160008152602001600060ff16815260200160006040519080825280602002602001820160405280156106435781602001602082028038833980820191505090505b50815260200160006040519080825280602002602001820160405280156106795781602001602082028038833980820191505090505b50815260200160405161068b906117fd565b604051809103906000f0801580156106a7573d6000803e3d6000fd5b5073ffffffffffffffffffffffffffffffffffffffff16815250905080600360008460ff16815260200190815260200160002060008201518160000160006101000a81548160ff021916908360ff160217905550602082015181600101908051906020019061071792919061180a565b50604082015181600201908051906020019061073492919061180a565b5060608201518160030160006101000a81548160ff0219169083600381111561075957fe5b02179055506080820151816004015560a08201518160050160006101000a81548160ff021916908360ff16021790555060c08201518160070190805190602001906107a592919061188a565b5060e08201518160090190805190602001906107c292919061188a565b5061010082015181600a0160006101000a81548173ffffffffffffffffffffffffffffffffffffffff021916908373ffffffffffffffffffffffffffffffffffffffff16021790555090505060008081819054906101000a900460ff168092919060010191906101000a81548160ff021916908360ff16021790555050600360008360ff1681526020019081526020016000206007013390806001815401808255809150509060018203906000526020600020016000909192909190916101000a81548173ffffffffffffffffffffffffffffffffffffffff021916908373ffffffffffffffffffffffffffffffffffffffff160217905550506001600360008460ff16815260200190815260200160002060060160003373ffffffffffffffffffffffffffffffffffffffff1673ffffffffffffffffffffffffffffffffffffffff16815260200190815260200160002060006101000a81548160ff0219169083151502179055507fed590dc695d4f7e656b37899068d46e3eafc741b38eb6a6761d919deba842bc682856000600360008760ff168152602001908152602001600020600701604051808560ff1681526020018060200184600381111561098657fe5b60ff16815260200180602001838103835286818151815260200191508051906020019080838360005b838110156109ca5780820151818401526020810190506109af565b50505050905090810190601f1680156109f75780820380516001836020036101000a031916815260200191505b508381038252848181548152602001915080548015610a6b57602002820191906000526020600020905b8160009054906101000a900473ffffffffffffffffffffffffffffffffffffffff1673ffffffffffffffffffffffffffffffffffffffff1681526020019060010190808311610a21575b5050965050505050505060405180910390a150505050565b6000610a8d61178a565b600360008460ff168152602001908152602001600020604051806101200160405290816000820160009054906101000a900460ff1660ff1660ff168152602001600182018054600181600116156101000203166002900480601f016020809104026020016040519081016040528092919081815260200182805460018160011615610100020316600290048015610b655780601f10610b3a57610100808354040283529160200191610b65565b820191906000526020600020905b815481529060010190602001808311610b4857829003601f168201915b50505050508152602001600282018054600181600116156101000203166002900480601f016020809104026020016040519081016040528092919081815260200182805460018160011615610100020316600290048015610c075780601f10610bdc57610100808354040283529160200191610c07565b820191906000526020600020905b815481529060010190602001808311610bea57829003601f168201915b505050505081526020016003820160009054906101000a900460ff166003811115610c2e57fe5b6003811115610c3957fe5b8152602001600482015481526020016005820160009054906101000a900460ff1660ff1660ff16815260200160078201805480602002602001604051908101604052809291908181526020018280548015610ce957602002820191906000526020600020905b8160009054906101000a900473ffffffffffffffffffffffffffffffffffffffff1673ffffffffffffffffffffffffffffffffffffffff1681526020019060010190808311610c9f575b5050505050815260200160098201805480602002602001604051908101604052809291908181526020018280548015610d7757602002820191906000526020600020905b8160009054906101000a900473ffffffffffffffffffffffffffffffffffffffff1673ffffffffffffffffffffffffffffffffffffffff1681526020019060010190808311610d2d575b50505050508152602001600a820160009054906101000a900473ffffffffffffffffffffffffffffffffffffffff1673ffffffffffffffffffffffffffffffffffffffff1673ffffffffffffffffffffffffffffffffffffffff1681525050905080610100015173ffffffffffffffffffffffffffffffffffffffff1663e3a9db1a8260e00151600081518110610e0a57fe5b60200260200101516040518263ffffffff1660e01b8152600401808273ffffffffffffffffffffffffffffffffffffffff1673ffffffffffffffffffffffffffffffffffffffff16815260200191505060206040518083038186803b158015610e7257600080fd5b505afa158015610e86573d6000803e3d6000fd5b505050506040513d6020811015610e9c57600080fd5b8101908080519060200190929190505050915050919050565b81600360008260ff16815260200190815260200160002060060160003373ffffffffffffffffffffffffffffffffffffffff1673ffffffffffffffffffffffffffffffffffffffff16815260200190815260200160002060009054906101000a900460ff16610f6f576040517f08c379a00000000000000000000000000000000000000000000000000000000081526004018080602001828103825260268152602001806126e26026913960400191505060405180910390fd5b6000600360008560ff1681526020019081526020016000209050806009018390806001815401808255809150509060018203906000526020600020016000909192909190916101000a81548173ffffffffffffffffffffffffffffffffffffffff021916908373ffffffffffffffffffffffffffffffffffffffff160217905550507ff26e6157384e61a32703387ba4422727904864dcf0e0beea4b607d11a00676498484604051808360ff1660ff1681526020018273ffffffffffffffffffffffffffffffffffffffff1673ffffffffffffffffffffffffffffffffffffffff1681526020019250505060405180910390a150505050565b6060600360008360ff16815260200190815260200160002060070180548060200260200160405190810160405280929190818152602001828054801561110357602002820191906000526020600020905b8160009054906101000a900473ffffffffffffffffffffffffffffffffffffffff1673ffffffffffffffffffffffffffffffffffffffff16815260200190600101908083116110b9575b50505050509050919050565b60036020528060005260406000206000915090508060000160009054906101000a900460ff1690806001018054600181600116156101000203166002900480601f0160208091040260200160405190810160405280929190818152602001828054600181600116156101000203166002900480156111ce5780601f106111a3576101008083540402835291602001916111ce565b820191906000526020600020905b8154815290600101906020018083116111b157829003601f168201915b505050505090806002018054600181600116156101000203166002900480601f01602080910402602001604051908101604052809291908181526020018280546001816001161561010002031660029004801561126c5780601f106112415761010080835404028352916020019161126c565b820191906000526020600020905b81548152906001019060200180831161124f57829003601f168201915b5050505050908060030160009054906101000a900460ff16908060040154908060050160009054906101000a900460ff169080600a0160009054906101000a900473ffffffffffffffffffffffffffffffffffffffff16905087565b6000809054906101000a900460ff1681565b6000600360008360ff168152602001908152602001600020905060018160030160006101000a81548160ff0219169083600381111561131557fe5b02179055507f7297a3ecec23f9c0ce7ae4bb6605545c7270ad1985ee7f625c426ea8325356b9828260030160009054906101000a900460ff16604051808360ff1660ff16815260200182600381111561136a57fe5b60ff1681526020019250505060405180910390a15050565b6000600360008360ff168152602001908152602001600020905080600a0160009054906101000a900473ffffffffffffffffffffffffffffffffffffffff1673ffffffffffffffffffffffffffffffffffffffff1663f340fa0134836009016000815481106113ed57fe5b9060005260206000200160009054906101000a900473ffffffffffffffffffffffffffffffffffffffff166040518363ffffffff1660e01b8152600401808273ffffffffffffffffffffffffffffffffffffffff1673ffffffffffffffffffffffffffffffffffffffff1681526020019150506000604051808303818588803b15801561147957600080fd5b505af115801561148d573d6000803e3d6000fd5b50505050507fcda5eeafa952e3fdd7a0e022ea09c83508806df2b916c7b784ea0dfb7bc2da2c8233836009016000815481106114c557fe5b9060005260206000200160009054906101000a900473ffffffffffffffffffffffffffffffffffffffff1634604051808560ff1660ff1681526020018473ffffffffffffffffffffffffffffffffffffffff1673ffffffffffffffffffffffffffffffffffffffff1681526020018373ffffffffffffffffffffffffffffffffffffffff1673ffffffffffffffffffffffffffffffffffffffff16815260200182815260200194505050505060405180910390a15050565b81600360008260ff16815260200190815260200160002060060160003373ffffffffffffffffffffffffffffffffffffffff1673ffffffffffffffffffffffffffffffffffffffff16815260200190815260200160002060009054906101000a900460ff16611637576040517f08c379a00000000000000000000000000000000000000000000000000000000081526004018080602001828103825260268152602001806126e26026913960400191505060405180910390fd5b6000600360008560ff1681526020019081526020016000209050806007018390806001815401808255809150509060018203906000526020600020016000909192909190916101000a81548173ffffffffffffffffffffffffffffffffffffffff021916908373ffffffffffffffffffffffffffffffffffffffff1602179055505060018160060160008573ffffffffffffffffffffffffffffffffffffffff1673ffffffffffffffffffffffffffffffffffffffff16815260200190815260200160002060006101000a81548160ff0219169083151502179055507f3a092f075833e4228e6f48d3dcbc28cdb68d243278dcd79cfaa17473e2f601408484604051808360ff1660ff1681526020018273ffffffffffffffffffffffffffffffffffffffff1673ffffffffffffffffffffffffffffffffffffffff1681526020019250505060405180910390a150505050565b604051806101200160405280600060ff1681526020016060815260200160608152602001600060038111156117bb57fe5b815260200160008152602001600060ff1681526020016060815260200160608152602001600073ffffffffffffffffffffffffffffffffffffffff1681525090565b610d658061197d83390190565b828054600181600116156101000203166002900490600052602060002090601f016020900481019282601f1061184b57805160ff1916838001178555611879565b82800160010185558215611879579182015b8281111561187857825182559160200191906001019061185d565b5b5090506118869190611914565b5090565b828054828255906000526020600020908101928215611903579160200282015b828111156119025782518260006101000a81548173ffffffffffffffffffffffffffffffffffffffff021916908373ffffffffffffffffffffffffffffffffffffffff160217905550916020019190600101906118aa565b5b5090506119109190611939565b5090565b61193691905b8082111561193257600081600090555060010161191a565b5090565b90565b61197991905b8082111561197557600081816101000a81549073ffffffffffffffffffffffffffffffffffffffff02191690555060010161193f565b5090565b9056fe60806040526100126100da60201b60201c565b6000806101000a81548173ffffffffffffffffffffffffffffffffffffffff021916908373ffffffffffffffffffffffffffffffffffffffff1602179055507f4101e71e974f68df5e9730cc223280b41654676bbb052cdcc735c3337e64d2d96000809054906101000a900473ffffffffffffffffffffffffffffffffffffffff16604051808273ffffffffffffffffffffffffffffffffffffffff1673ffffffffffffffffffffffffffffffffffffffff16815260200191505060405180910390a16100e2565b600033905090565b610c74806100f16000396000f3fe6080604052600436106100555760003560e01c80632348238c1461005a57806351cff8d9146100ab5780636809691a146100fc578063c6dbdf611461014d578063e3a9db1a146101a4578063f340fa0114610209575b600080fd5b34801561006657600080fd5b506100a96004803603602081101561007d57600080fd5b81019080803573ffffffffffffffffffffffffffffffffffffffff16906020019092919050505061024d565b005b3480156100b757600080fd5b506100fa600480360360208110156100ce57600080fd5b81019080803573ffffffffffffffffffffffffffffffffffffffff169060200190929190505050610446565b005b34801561010857600080fd5b5061014b6004803603602081101561011f57600080fd5b81019080803573ffffffffffffffffffffffffffffffffffffffff169060200190929190505050610614565b005b34801561015957600080fd5b506101626107c4565b604051808273ffffffffffffffffffffffffffffffffffffffff1673ffffffffffffffffffffffffffffffffffffffff16815260200191505060405180910390f35b3480156101b057600080fd5b506101f3600480360360208110156101c757600080fd5b81019080803573ffffffffffffffffffffffffffffffffffffffff1690602001909291905050506107ed565b6040518082815260200191505060405180910390f35b61024b6004803603602081101561021f57600080fd5b81019080803573ffffffffffffffffffffffffffffffffffffffff169060200190929190505050610836565b005b6000809054906101000a900473ffffffffffffffffffffffffffffffffffffffff1673ffffffffffffffffffffffffffffffffffffffff1661028d6109ce565b73ffffffffffffffffffffffffffffffffffffffff16146102f9576040517f08c379a000000000000000000000000000000000000000000000000000000000815260040180806020018281038252602c815260200180610c14602c913960400191505060405180910390fd5b600073ffffffffffffffffffffffffffffffffffffffff168173ffffffffffffffffffffffffffffffffffffffff16141561037f576040517f08c379a000000000000000000000000000000000000000000000000000000000815260040180806020018281038252602a815260200180610bea602a913960400191505060405180910390fd5b806000806101000a81548173ffffffffffffffffffffffffffffffffffffffff021916908373ffffffffffffffffffffffffffffffffffffffff1602179055507f4101e71e974f68df5e9730cc223280b41654676bbb052cdcc735c3337e64d2d96000809054906101000a900473ffffffffffffffffffffffffffffffffffffffff16604051808273ffffffffffffffffffffffffffffffffffffffff1673ffffffffffffffffffffffffffffffffffffffff16815260200191505060405180910390a150565b6000809054906101000a900473ffffffffffffffffffffffffffffffffffffffff1673ffffffffffffffffffffffffffffffffffffffff166104866109ce565b73ffffffffffffffffffffffffffffffffffffffff16146104f2576040517f08c379a000000000000000000000000000000000000000000000000000000000815260040180806020018281038252602c815260200180610c14602c913960400191505060405180910390fd5b6000600160008373ffffffffffffffffffffffffffffffffffffffff1673ffffffffffffffffffffffffffffffffffffffff1681526020019081526020016000205490506000600160008473ffffffffffffffffffffffffffffffffffffffff1673ffffffffffffffffffffffffffffffffffffffff168152602001908152602001600020819055508173ffffffffffffffffffffffffffffffffffffffff166108fc829081150290604051600060405180830381858888f193505050501580156105c1573d6000803e3d6000fd5b508173ffffffffffffffffffffffffffffffffffffffff167f7084f5476618d8e60b11ef0d7d3f06914655adb8793e28ff7f018d4c76d505d5826040518082815260200191505060405180910390a25050565b6000809054906101000a900473ffffffffffffffffffffffffffffffffffffffff1673ffffffffffffffffffffffffffffffffffffffff166106546109ce565b73ffffffffffffffffffffffffffffffffffffffff16146106c0576040517f08c379a000000000000000000000000000000000000000000000000000000000815260040180806020018281038252602c815260200180610c14602c913960400191505060405180910390fd5b6000600160008373ffffffffffffffffffffffffffffffffffffffff1673ffffffffffffffffffffffffffffffffffffffff1681526020019081526020016000205490506000600160008473ffffffffffffffffffffffffffffffffffffffff1673ffffffffffffffffffffffffffffffffffffffff16815260200190815260200160002081905550610772818373ffffffffffffffffffffffffffffffffffffffff166109d690919063ffffffff16565b8173ffffffffffffffffffffffffffffffffffffffff167f7084f5476618d8e60b11ef0d7d3f06914655adb8793e28ff7f018d4c76d505d5826040518082815260200191505060405180910390a25050565b60008060009054906101000a900473ffffffffffffffffffffffffffffffffffffffff16905090565b6000600160008373ffffffffffffffffffffffffffffffffffffffff1673ffffffffffffffffffffffffffffffffffffffff168152602001908152602001600020549050919050565b6000809054906101000a900473ffffffffffffffffffffffffffffffffffffffff1673ffffffffffffffffffffffffffffffffffffffff166108766109ce565b73ffffffffffffffffffffffffffffffffffffffff16146108e2576040517f08c379a000000000000000000000000000000000000000000000000000000000815260040180806020018281038252602c815260200180610c14602c913960400191505060405180910390fd5b600034905061093981600160008573ffffffffffffffffffffffffffffffffffffffff1673ffffffffffffffffffffffffffffffffffffffff16815260200190815260200160002054610b2790919063ffffffff16565b600160008473ffffffffffffffffffffffffffffffffffffffff1673ffffffffffffffffffffffffffffffffffffffff168152602001908152602001600020819055508173ffffffffffffffffffffffffffffffffffffffff167f2da466a7b24304f47e87fa2e1e5a81b9831ce54fec19055ce277ca2f39ba42c4826040518082815260200191505060405180910390a25050565b600033905090565b803073ffffffffffffffffffffffffffffffffffffffff16311015610a63576040517f08c379a000000000000000000000000000000000000000000000000000000000815260040180806020018281038252601d8152602001807f416464726573733a20696e73756666696369656e742062616c616e636500000081525060200191505060405180910390fd5b60008273ffffffffffffffffffffffffffffffffffffffff168260405180600001905060006040518083038185875af1925050503d8060008114610ac3576040519150601f19603f3d011682016040523d82523d6000602084013e610ac8565b606091505b5050905080610b22576040517f08c379a000000000000000000000000000000000000000000000000000000000815260040180806020018281038252603a815260200180610bb0603a913960400191505060405180910390fd5b505050565b600080828401905083811015610ba5576040517f08c379a000000000000000000000000000000000000000000000000000000000815260040180806020018281038252601b8152602001807f536166654d6174683a206164646974696f6e206f766572666c6f77000000000081525060200191505060405180910390fd5b809150509291505056fe416464726573733a20756e61626c6520746f2073656e642076616c75652c20726563697069656e74206d617920686176652072657665727465645365636f6e646172793a206e6577207072696d61727920697320746865207a65726f20616464726573735365636f6e646172793a2063616c6c6572206973206e6f7420746865207072696d617279206163636f756e74a265627a7a72315820112b12638fa8a59fded75a03b3739812cefc91002d8123d3c5de50c6d39bdcfb64736f6c634300050c003263616c6c6572206973206e6f7420612076616c696461746f72206f662074686973207461736ba265627a7a7231582064a212b25d233ab42582b3b0cb538d963d2b316ff219960e11b99c607a6670e064736f6c634300050c0032",
  "source": "pragma solidity ^0.5.11;\n\nimport '../node_modules/@openzeppelin/contracts/payment/escrow/Escrow.sol';\nimport './PPCToken.sol';\n\ncontract TaskList {\n\tuint8 public task_count = 0;\n\tenum State { created, accepted, completed, reviewed }\n\tuint8[] ratings = [0, 1, 2, 3, 4, 5, 6, 7, 8, 9, 10];\n\t// enum Difficulty { standard, advanced , expert }\n\t// enum Uncertainity { clear, uncertain, unknown }\n\tPPCToken private ppctoken;\n\n\tconstructor (address _ppctoken_address) public {\n\t\tppctoken = PPCToken(_ppctoken_address);\n\t}\n\n\tstruct Task {\n\t\tuint8 id;\n\t\tstring title;\n\t\tstring description;\n\t\tState state;\n\t\tuint deadline;\n\t\tuint8 rating;\n\t\tmapping(address => bool) validators_map;\n\t\taddress[] validators;\n\t\tmapping(address => bool) workers_map;\n\t\taddress[] workers;\n\t\tEscrow escrow;\n\t\t//uint predecessor_id;\n\t\t//uint successor_id;\n\t}\n\n\tmapping(uint => Task) public tasks;\n\n\tevent TaskCreated(\n\t\tuint id,\n\t\tstring title,\n\t\tState state,\n\t\taddress[] validators\n\t);\n\n\tevent Test(bool is_true);\n\n\tmodifier validatorsOnly(uint8 _id) {\n\t\t// checks that the sender is a validator of task\n\t\trequire(tasks[_id].validators_map[msg.sender], \"caller is not a validator of this task\");\n\t\t_;\n\t}\n\n\tevent TaskState(\n\t\tuint8 id,\n\t\tState state\n\t);\n\n\tevent validatorAdded(\n\t\tuint8 task_id,\n\t\taddress validator\n\t);\n\n\tevent workerAdded(\n\t\tuint8 task_id,\n\t\taddress worker\n\t);\n\n\tevent taskFunded(\n\t\tuint8 task_id,\n\t\taddress sender,\n\t\taddress receiver,\n\t\tuint256 amount\n\t);\n\n\tfunction createTask(string memory _title, string memory _description) public {\n\t\tuint8 _id = task_count;\n\t\tTask memory task = Task(_id, _title, _description, State.created, 0, 0, new address[](0), new address[](0), new Escrow());\n\t\t// https://medium.com/loom-network/ethereum-solidity-memory-vs-storage-how-to-initialize-an-array-inside-a-struct-184baf6aa2eb\n\t\ttasks[_id] = task;\n\t\ttask_count++;\n\t\ttasks[_id].validators.push(msg.sender);\n\t\ttasks[_id].validators_map[msg.sender] = true;\n\t\temit TaskCreated(_id, _title, State.created, tasks[_id].validators);\n\t}\n\n\tfunction getValidators(uint8 _id) public view returns (address[] memory) {\n\t\treturn tasks[_id].validators;\n\t}\n\n\tfunction addValidator(uint8 _task_id, address _validator) public validatorsOnly(_task_id) {\n\t\tTask storage _task = tasks[_task_id];\n\t\t_task.validators.push(_validator);\n\t\t_task.validators_map[_validator] = true;\n\t\temit validatorAdded(_task_id, _validator);\n\t}\n\n\tfunction addWorker(uint8 _task_id, address _worker) public validatorsOnly(_task_id) {\n\t\tTask storage _task = tasks[_task_id];\n\t\t_task.workers.push(_worker);\n\t\temit workerAdded(_task_id, _worker);\n\t}\n\n\tfunction fundTaskEscrow(uint8 _task_id) public payable {\n\t\t// stores funds for the given task its corresponding escrow\n\t\tTask storage _task = tasks[_task_id];\n\n\t\t_task.escrow.deposit.value(msg.value)(_task.workers[0]);\n\t\t// the 1st worker will get the payment -> add split payment later\n\t\temit taskFunded(_task_id, msg.sender, _task.workers[0], msg.value);\n\t}\n\n\tfunction getTaskDeposit(uint8 _task_id) public view returns (uint256) {\n\t\tTask memory _task = tasks[_task_id];\n\t\treturn _task.escrow.depositsOf(_task.workers[0]);\n\t}\n\n\tfunction toggleStarted(uint8 _id) public {\n\t\tTask storage _task = tasks[_id];\n\t\t_task.state = State.accepted;\n\t\t// tasks[_id] = _task;\n\t\temit TaskState(_id, _task.state);\n\t}\n\n}",
  "sourcePath": "/Users/pabrasey/Dropbox/01_Formation/ETHZ/01_Master/02_Projects/Master Thesis/Production/Code/ipd_tasks_react/contracts/TaskList.sol",
  "compiler": {
    "name": "solc",
    "version": "0.5.12+commit.7709ece9.Emscripten.clang"
  },
  "schemaVersion": "3.0.19",
  "updatedAt": "2019-12-17T19:23:14.854Z",
  "networkType": "ethereum",
  "devdoc": {
    "methods": {}
  },
  "userdoc": {
    "methods": {}
  }
}