{
  "contractName": "Task",
  "abi": [
    {
      "inputs": [
        {
          "internalType": "uint8",
          "name": "_id",
          "type": "uint8"
        },
        {
          "internalType": "string",
          "name": "_title",
          "type": "string"
        },
        {
          "internalType": "string",
          "name": "_description",
          "type": "string"
        }
      ],
      "payable": false,
      "stateMutability": "nonpayable",
      "type": "constructor"
    },
    {
      "anonymous": false,
      "inputs": [
        {
          "indexed": false,
          "internalType": "uint256",
          "name": "id",
          "type": "uint256"
        },
        {
          "indexed": false,
          "internalType": "string",
          "name": "title",
          "type": "string"
        },
        {
          "indexed": false,
          "internalType": "enum Task.State",
          "name": "state",
          "type": "uint8"
        },
        {
          "indexed": false,
          "internalType": "address[]",
          "name": "validators",
          "type": "address[]"
        }
      ],
      "name": "TaskCreated",
      "type": "event"
    },
    {
      "anonymous": false,
      "inputs": [
        {
          "indexed": false,
          "internalType": "uint8",
          "name": "id",
          "type": "uint8"
        },
        {
          "indexed": false,
          "internalType": "enum Task.State",
          "name": "state",
          "type": "uint8"
        }
      ],
      "name": "TaskState",
      "type": "event"
    },
    {
      "anonymous": false,
      "inputs": [
        {
          "indexed": false,
          "internalType": "bool",
          "name": "is_true",
          "type": "bool"
        }
      ],
      "name": "Test",
      "type": "event"
    },
    {
      "anonymous": false,
      "inputs": [
        {
          "indexed": false,
          "internalType": "uint8",
          "name": "task_id",
          "type": "uint8"
        },
        {
          "indexed": false,
          "internalType": "address",
          "name": "sender",
          "type": "address"
        },
        {
          "indexed": false,
          "internalType": "address",
          "name": "payee",
          "type": "address"
        },
        {
          "indexed": false,
          "internalType": "uint256",
          "name": "amount",
          "type": "uint256"
        }
      ],
      "name": "taskFunded",
      "type": "event"
    },
    {
      "anonymous": false,
      "inputs": [
        {
          "indexed": false,
          "internalType": "uint8",
          "name": "task_id",
          "type": "uint8"
        },
        {
          "indexed": false,
          "internalType": "address",
          "name": "validator",
          "type": "address"
        }
      ],
      "name": "validatorAdded",
      "type": "event"
    },
    {
      "anonymous": false,
      "inputs": [
        {
          "indexed": false,
          "internalType": "uint8",
          "name": "task_id",
          "type": "uint8"
        },
        {
          "indexed": false,
          "internalType": "address",
          "name": "worker",
          "type": "address"
        }
      ],
      "name": "workerAdded",
      "type": "event"
    },
    {
      "constant": true,
      "inputs": [
        {
          "internalType": "uint256",
          "name": "",
          "type": "uint256"
        }
      ],
      "name": "validators",
      "outputs": [
        {
          "internalType": "address",
          "name": "",
          "type": "address"
        }
      ],
      "payable": false,
      "stateMutability": "view",
      "type": "function"
    },
    {
      "constant": true,
      "inputs": [
        {
          "internalType": "address",
          "name": "",
          "type": "address"
        }
      ],
      "name": "validators_map",
      "outputs": [
        {
          "internalType": "bool",
          "name": "",
          "type": "bool"
        }
      ],
      "payable": false,
      "stateMutability": "view",
      "type": "function"
    },
    {
      "constant": true,
      "inputs": [
        {
          "internalType": "uint256",
          "name": "",
          "type": "uint256"
        }
      ],
      "name": "workers",
      "outputs": [
        {
          "internalType": "address",
          "name": "",
          "type": "address"
        }
      ],
      "payable": false,
      "stateMutability": "view",
      "type": "function"
    },
    {
      "constant": true,
      "inputs": [
        {
          "internalType": "address",
          "name": "",
          "type": "address"
        }
      ],
      "name": "workers_map",
      "outputs": [
        {
          "internalType": "bool",
          "name": "",
          "type": "bool"
        }
      ],
      "payable": false,
      "stateMutability": "view",
      "type": "function"
    },
    {
      "constant": true,
      "inputs": [],
      "name": "getValidators",
      "outputs": [
        {
          "internalType": "address[]",
          "name": "",
          "type": "address[]"
        }
      ],
      "payable": false,
      "stateMutability": "view",
      "type": "function"
    },
    {
      "constant": false,
      "inputs": [
        {
          "internalType": "address",
          "name": "_validator",
          "type": "address"
        }
      ],
      "name": "addValidator",
      "outputs": [],
      "payable": false,
      "stateMutability": "nonpayable",
      "type": "function"
    },
    {
      "constant": false,
      "inputs": [
        {
          "internalType": "address",
          "name": "_worker",
          "type": "address"
        }
      ],
      "name": "addWorker",
      "outputs": [],
      "payable": false,
      "stateMutability": "nonpayable",
      "type": "function"
    },
    {
      "constant": false,
      "inputs": [
        {
          "internalType": "address payable",
          "name": "_payee",
          "type": "address"
        }
      ],
      "name": "addPayee",
      "outputs": [],
      "payable": false,
      "stateMutability": "nonpayable",
      "type": "function"
    },
    {
      "constant": false,
      "inputs": [],
      "name": "fundTaskEscrow",
      "outputs": [],
      "payable": true,
      "stateMutability": "payable",
      "type": "function"
    },
    {
      "constant": true,
      "inputs": [],
      "name": "getTaskDeposit",
      "outputs": [
        {
          "internalType": "uint256",
          "name": "",
          "type": "uint256"
        }
      ],
      "payable": false,
      "stateMutability": "view",
      "type": "function"
    },
    {
      "constant": false,
      "inputs": [
        {
          "internalType": "uint256",
          "name": "_id",
          "type": "uint256"
        }
      ],
      "name": "acceptTask",
      "outputs": [],
      "payable": false,
      "stateMutability": "nonpayable",
      "type": "function"
    },
    {
      "constant": false,
      "inputs": [
        {
          "internalType": "uint256",
          "name": "_id",
          "type": "uint256"
        }
      ],
      "name": "completeTask",
      "outputs": [],
      "payable": false,
      "stateMutability": "nonpayable",
      "type": "function"
    },
    {
      "constant": false,
      "inputs": [
        {
          "internalType": "uint256",
          "name": "_id",
          "type": "uint256"
        }
      ],
      "name": "reviewTask",
      "outputs": [],
      "payable": false,
      "stateMutability": "nonpayable",
      "type": "function"
    },
    {
      "constant": false,
      "inputs": [],
      "name": "toggleStarted",
      "outputs": [],
      "payable": false,
      "stateMutability": "nonpayable",
      "type": "function"
    }
  ],
  "bytecode": "0x6080604052604051806101600160405280600060ff168152602001600160ff168152602001600260ff168152602001600360ff168152602001600460ff168152602001600560ff168152602001600660ff168152602001600760ff168152602001600860ff168152602001600960ff168152602001600a60ff16815250600090600b6200008e92919062000530565b503480156200009c57600080fd5b50604051620021fb380380620021fb83398181016040526060811015620000c257600080fd5b810190808051906020019092919080516040519392919084640100000000821115620000ed57600080fd5b838201915060208201858111156200010457600080fd5b82518660018202830111640100000000821117156200012257600080fd5b8083526020830192505050908051906020019080838360005b83811015620001585780820151818401526020810190506200013b565b50505050905090810190601f168015620001865780820380516001836020036101000a031916815260200191505b5060405260200180516040519392919084640100000000821115620001aa57600080fd5b83820191506020820185811115620001c157600080fd5b8251866001820283011164010000000082111715620001df57600080fd5b8083526020830192505050908051906020019080838360005b8381101562000215578082015181840152602081019050620001f8565b50505050905090810190601f168015620002435780820380516001836020036101000a031916815260200191505b5060405250505082600160006101000a81548160ff021916908360ff16021790555081600290805190602001906200027d929190620005de565b50806003908051906020019062000296929190620005de565b506000600460006101000a81548160ff02191690836003811115620002b757fe5b021790555060083390806001815401808255809150509060018203906000526020600020016000909192909190916101000a81548173ffffffffffffffffffffffffffffffffffffffff021916908373ffffffffffffffffffffffffffffffffffffffff160217905550506001600760003373ffffffffffffffffffffffffffffffffffffffff1673ffffffffffffffffffffffffffffffffffffffff16815260200190815260200160002060006101000a81548160ff021916908315150217905550604051620003889062000665565b604051809103906000f080158015620003a5573d6000803e3d6000fd5b50600c60006101000a81548173ffffffffffffffffffffffffffffffffffffffff021916908373ffffffffffffffffffffffffffffffffffffffff1602179055507fed590dc695d4f7e656b37899068d46e3eafc741b38eb6a6761d919deba842bc6838360006008604051808560ff168152602001806020018460038111156200042b57fe5b60ff16815260200180602001838103835286818151815260200191508051906020019080838360005b838110156200047157808201518184015260208101905062000454565b50505050905090810190601f1680156200049f5780820380516001836020036101000a031916815260200191505b5083810382528481815481526020019150805480156200051557602002820191906000526020600020905b8160009054906101000a900473ffffffffffffffffffffffffffffffffffffffff1673ffffffffffffffffffffffffffffffffffffffff1681526020019060010190808311620004ca575b5050965050505050505060405180910390a1505050620006ce565b82805482825590600052602060002090601f01602090048101928215620005cb5791602002820160005b838211156200059a57835183826101000a81548160ff021916908360ff16021790555092602001926001016020816000010492830192600103026200055a565b8015620005c95782816101000a81549060ff02191690556001016020816000010492830192600103026200059a565b505b509050620005da919062000673565b5090565b828054600181600116156101000203166002900490600052602060002090601f016020900481019282601f106200062157805160ff191683800117855562000652565b8280016001018555821562000652579182015b828111156200065157825182559160200191906001019062000634565b5b509050620006619190620006a6565b5090565b610d65806200149683390190565b620006a391905b808211156200069f57600081816101000a81549060ff0219169055506001016200067a565b5090565b90565b620006cb91905b80821115620006c7576000816000905550600101620006ad565b5090565b90565b610db880620006de6000396000f3fe6080604052600436106100dd5760003560e01c8063806ad57e1161007f578063dce59c0011610059578063dce59c00146103e8578063e1e2955814610439578063ef98496914610474578063f1a22dc21461048b576100dd565b8063806ad57e14610321578063b7ab4db514610372578063dcbc5644146103de576100dd565b8063484ee2c4116100bb578063484ee2c4146102015780634d238c8e1461022c57806365e832f21461027d5780637a40bbef146102e6576100dd565b80631bf6912d146100e257806335aa2e441461011d5780634471495714610198575b600080fd5b3480156100ee57600080fd5b5061011b6004803603602081101561010557600080fd5b8101908080359060200190929190505050610506565b005b34801561012957600080fd5b506101566004803603602081101561014057600080fd5b8101908080359060200190929190505050610509565b604051808273ffffffffffffffffffffffffffffffffffffffff1673ffffffffffffffffffffffffffffffffffffffff16815260200191505060405180910390f35b3480156101a457600080fd5b506101e7600480360360208110156101bb57600080fd5b81019080803573ffffffffffffffffffffffffffffffffffffffff169060200190929190505050610545565b604051808215151515815260200191505060405180910390f35b34801561020d57600080fd5b50610216610565565b6040518082815260200191505060405180910390f35b34801561023857600080fd5b5061027b6004803603602081101561024f57600080fd5b81019080803573ffffffffffffffffffffffffffffffffffffffff169060200190929190505050610668565b005b34801561028957600080fd5b506102cc600480360360208110156102a057600080fd5b81019080803573ffffffffffffffffffffffffffffffffffffffff16906020019092919050505061084b565b604051808215151515815260200191505060405180910390f35b3480156102f257600080fd5b5061031f6004803603602081101561030957600080fd5b810190808035906020019092919050505061086b565b005b34801561032d57600080fd5b506103706004803603602081101561034457600080fd5b81019080803573ffffffffffffffffffffffffffffffffffffffff16906020019092919050505061086e565b005b34801561037e57600080fd5b506103876109f9565b6040518080602001828103825283818151815260200191508051906020019060200280838360005b838110156103ca5780820151818401526020810190506103af565b505050509050019250505060405180910390f35b6103e6610a87565b005b3480156103f457600080fd5b506104376004803603602081101561040b57600080fd5b81019080803573ffffffffffffffffffffffffffffffffffffffff169060200190929190505050610c43565b005b34801561044557600080fd5b506104726004803603602081101561045c57600080fd5b8101908080359060200190929190505050610c87565b005b34801561048057600080fd5b50610489610c8a565b005b34801561049757600080fd5b506104c4600480360360208110156104ae57600080fd5b8101908080359060200190929190505050610d21565b604051808273ffffffffffffffffffffffffffffffffffffffff1673ffffffffffffffffffffffffffffffffffffffff16815260200191505060405180910390f35b50565b6008818154811061051657fe5b906000526020600020016000915054906101000a900473ffffffffffffffffffffffffffffffffffffffff1681565b60096020528060005260406000206000915054906101000a900460ff1681565b6000600c60009054906101000a900473ffffffffffffffffffffffffffffffffffffffff1673ffffffffffffffffffffffffffffffffffffffff1663e3a9db1a600b60009054906101000a900473ffffffffffffffffffffffffffffffffffffffff166040518263ffffffff1660e01b8152600401808273ffffffffffffffffffffffffffffffffffffffff1673ffffffffffffffffffffffffffffffffffffffff16815260200191505060206040518083038186803b15801561062857600080fd5b505afa15801561063c573d6000803e3d6000fd5b505050506040513d602081101561065257600080fd5b8101908080519060200190929190505050905090565b600760003373ffffffffffffffffffffffffffffffffffffffff1673ffffffffffffffffffffffffffffffffffffffff16815260200190815260200160002060009054906101000a900460ff1661070a576040517f08c379a0000000000000000000000000000000000000000000000000000000008152600401808060200182810382526026815260200180610d5e6026913960400191505060405180910390fd5b60088190806001815401808255809150509060018203906000526020600020016000909192909190916101000a81548173ffffffffffffffffffffffffffffffffffffffff021916908373ffffffffffffffffffffffffffffffffffffffff160217905550506001600760008373ffffffffffffffffffffffffffffffffffffffff1673ffffffffffffffffffffffffffffffffffffffff16815260200190815260200160002060006101000a81548160ff0219169083151502179055507f3a092f075833e4228e6f48d3dcbc28cdb68d243278dcd79cfaa17473e2f60140600160009054906101000a900460ff1682604051808360ff1660ff1681526020018273ffffffffffffffffffffffffffffffffffffffff1673ffffffffffffffffffffffffffffffffffffffff1681526020019250505060405180910390a150565b60076020528060005260406000206000915054906101000a900460ff1681565b50565b600760003373ffffffffffffffffffffffffffffffffffffffff1673ffffffffffffffffffffffffffffffffffffffff16815260200190815260200160002060009054906101000a900460ff16610910576040517f08c379a0000000000000000000000000000000000000000000000000000000008152600401808060200182810382526026815260200180610d5e6026913960400191505060405180910390fd5b600a8190806001815401808255809150509060018203906000526020600020016000909192909190916101000a81548173ffffffffffffffffffffffffffffffffffffffff021916908373ffffffffffffffffffffffffffffffffffffffff160217905550507ff26e6157384e61a32703387ba4422727904864dcf0e0beea4b607d11a0067649600160009054906101000a900460ff1682604051808360ff1660ff1681526020018273ffffffffffffffffffffffffffffffffffffffff1673ffffffffffffffffffffffffffffffffffffffff1681526020019250505060405180910390a150565b60606008805480602002602001604051908101604052809291908181526020018280548015610a7d57602002820191906000526020600020905b8160009054906101000a900473ffffffffffffffffffffffffffffffffffffffff1673ffffffffffffffffffffffffffffffffffffffff1681526020019060010190808311610a33575b5050505050905090565b600c60009054906101000a900473ffffffffffffffffffffffffffffffffffffffff1673ffffffffffffffffffffffffffffffffffffffff1663f340fa0134600b60009054906101000a900473ffffffffffffffffffffffffffffffffffffffff166040518363ffffffff1660e01b8152600401808273ffffffffffffffffffffffffffffffffffffffff1673ffffffffffffffffffffffffffffffffffffffff1681526020019150506000604051808303818588803b158015610b4a57600080fd5b505af1158015610b5e573d6000803e3d6000fd5b50505050507fcda5eeafa952e3fdd7a0e022ea09c83508806df2b916c7b784ea0dfb7bc2da2c600160009054906101000a900460ff1633600b60009054906101000a900473ffffffffffffffffffffffffffffffffffffffff1634604051808560ff1660ff1681526020018473ffffffffffffffffffffffffffffffffffffffff1673ffffffffffffffffffffffffffffffffffffffff1681526020018373ffffffffffffffffffffffffffffffffffffffff1673ffffffffffffffffffffffffffffffffffffffff16815260200182815260200194505050505060405180910390a1565b80600b60006101000a81548173ffffffffffffffffffffffffffffffffffffffff021916908373ffffffffffffffffffffffffffffffffffffffff16021790555050565b50565b6001600460006101000a81548160ff02191690836003811115610ca957fe5b02179055507f7297a3ecec23f9c0ce7ae4bb6605545c7270ad1985ee7f625c426ea8325356b9600160009054906101000a900460ff16600460009054906101000a900460ff16604051808360ff1660ff168152602001826003811115610d0b57fe5b60ff1681526020019250505060405180910390a1565b600a8181548110610d2e57fe5b906000526020600020016000915054906101000a900473ffffffffffffffffffffffffffffffffffffffff168156fe63616c6c6572206973206e6f7420612076616c696461746f72206f662074686973207461736ba265627a7a72315820656e082d28d9c20a6c6f98d1fd8a57fc03e95ca10edf40674d4e2d2e685a32f764736f6c634300050c003260806040526100126100da60201b60201c565b6000806101000a81548173ffffffffffffffffffffffffffffffffffffffff021916908373ffffffffffffffffffffffffffffffffffffffff1602179055507f4101e71e974f68df5e9730cc223280b41654676bbb052cdcc735c3337e64d2d96000809054906101000a900473ffffffffffffffffffffffffffffffffffffffff16604051808273ffffffffffffffffffffffffffffffffffffffff1673ffffffffffffffffffffffffffffffffffffffff16815260200191505060405180910390a16100e2565b600033905090565b610c74806100f16000396000f3fe6080604052600436106100555760003560e01c80632348238c1461005a57806351cff8d9146100ab5780636809691a146100fc578063c6dbdf611461014d578063e3a9db1a146101a4578063f340fa0114610209575b600080fd5b34801561006657600080fd5b506100a96004803603602081101561007d57600080fd5b81019080803573ffffffffffffffffffffffffffffffffffffffff16906020019092919050505061024d565b005b3480156100b757600080fd5b506100fa600480360360208110156100ce57600080fd5b81019080803573ffffffffffffffffffffffffffffffffffffffff169060200190929190505050610446565b005b34801561010857600080fd5b5061014b6004803603602081101561011f57600080fd5b81019080803573ffffffffffffffffffffffffffffffffffffffff169060200190929190505050610614565b005b34801561015957600080fd5b506101626107c4565b604051808273ffffffffffffffffffffffffffffffffffffffff1673ffffffffffffffffffffffffffffffffffffffff16815260200191505060405180910390f35b3480156101b057600080fd5b506101f3600480360360208110156101c757600080fd5b81019080803573ffffffffffffffffffffffffffffffffffffffff1690602001909291905050506107ed565b6040518082815260200191505060405180910390f35b61024b6004803603602081101561021f57600080fd5b81019080803573ffffffffffffffffffffffffffffffffffffffff169060200190929190505050610836565b005b6000809054906101000a900473ffffffffffffffffffffffffffffffffffffffff1673ffffffffffffffffffffffffffffffffffffffff1661028d6109ce565b73ffffffffffffffffffffffffffffffffffffffff16146102f9576040517f08c379a000000000000000000000000000000000000000000000000000000000815260040180806020018281038252602c815260200180610c14602c913960400191505060405180910390fd5b600073ffffffffffffffffffffffffffffffffffffffff168173ffffffffffffffffffffffffffffffffffffffff16141561037f576040517f08c379a000000000000000000000000000000000000000000000000000000000815260040180806020018281038252602a815260200180610bea602a913960400191505060405180910390fd5b806000806101000a81548173ffffffffffffffffffffffffffffffffffffffff021916908373ffffffffffffffffffffffffffffffffffffffff1602179055507f4101e71e974f68df5e9730cc223280b41654676bbb052cdcc735c3337e64d2d96000809054906101000a900473ffffffffffffffffffffffffffffffffffffffff16604051808273ffffffffffffffffffffffffffffffffffffffff1673ffffffffffffffffffffffffffffffffffffffff16815260200191505060405180910390a150565b6000809054906101000a900473ffffffffffffffffffffffffffffffffffffffff1673ffffffffffffffffffffffffffffffffffffffff166104866109ce565b73ffffffffffffffffffffffffffffffffffffffff16146104f2576040517f08c379a000000000000000000000000000000000000000000000000000000000815260040180806020018281038252602c815260200180610c14602c913960400191505060405180910390fd5b6000600160008373ffffffffffffffffffffffffffffffffffffffff1673ffffffffffffffffffffffffffffffffffffffff1681526020019081526020016000205490506000600160008473ffffffffffffffffffffffffffffffffffffffff1673ffffffffffffffffffffffffffffffffffffffff168152602001908152602001600020819055508173ffffffffffffffffffffffffffffffffffffffff166108fc829081150290604051600060405180830381858888f193505050501580156105c1573d6000803e3d6000fd5b508173ffffffffffffffffffffffffffffffffffffffff167f7084f5476618d8e60b11ef0d7d3f06914655adb8793e28ff7f018d4c76d505d5826040518082815260200191505060405180910390a25050565b6000809054906101000a900473ffffffffffffffffffffffffffffffffffffffff1673ffffffffffffffffffffffffffffffffffffffff166106546109ce565b73ffffffffffffffffffffffffffffffffffffffff16146106c0576040517f08c379a000000000000000000000000000000000000000000000000000000000815260040180806020018281038252602c815260200180610c14602c913960400191505060405180910390fd5b6000600160008373ffffffffffffffffffffffffffffffffffffffff1673ffffffffffffffffffffffffffffffffffffffff1681526020019081526020016000205490506000600160008473ffffffffffffffffffffffffffffffffffffffff1673ffffffffffffffffffffffffffffffffffffffff16815260200190815260200160002081905550610772818373ffffffffffffffffffffffffffffffffffffffff166109d690919063ffffffff16565b8173ffffffffffffffffffffffffffffffffffffffff167f7084f5476618d8e60b11ef0d7d3f06914655adb8793e28ff7f018d4c76d505d5826040518082815260200191505060405180910390a25050565b60008060009054906101000a900473ffffffffffffffffffffffffffffffffffffffff16905090565b6000600160008373ffffffffffffffffffffffffffffffffffffffff1673ffffffffffffffffffffffffffffffffffffffff168152602001908152602001600020549050919050565b6000809054906101000a900473ffffffffffffffffffffffffffffffffffffffff1673ffffffffffffffffffffffffffffffffffffffff166108766109ce565b73ffffffffffffffffffffffffffffffffffffffff16146108e2576040517f08c379a000000000000000000000000000000000000000000000000000000000815260040180806020018281038252602c815260200180610c14602c913960400191505060405180910390fd5b600034905061093981600160008573ffffffffffffffffffffffffffffffffffffffff1673ffffffffffffffffffffffffffffffffffffffff16815260200190815260200160002054610b2790919063ffffffff16565b600160008473ffffffffffffffffffffffffffffffffffffffff1673ffffffffffffffffffffffffffffffffffffffff168152602001908152602001600020819055508173ffffffffffffffffffffffffffffffffffffffff167f2da466a7b24304f47e87fa2e1e5a81b9831ce54fec19055ce277ca2f39ba42c4826040518082815260200191505060405180910390a25050565b600033905090565b803073ffffffffffffffffffffffffffffffffffffffff16311015610a63576040517f08c379a000000000000000000000000000000000000000000000000000000000815260040180806020018281038252601d8152602001807f416464726573733a20696e73756666696369656e742062616c616e636500000081525060200191505060405180910390fd5b60008273ffffffffffffffffffffffffffffffffffffffff168260405180600001905060006040518083038185875af1925050503d8060008114610ac3576040519150601f19603f3d011682016040523d82523d6000602084013e610ac8565b606091505b5050905080610b22576040517f08c379a000000000000000000000000000000000000000000000000000000000815260040180806020018281038252603a815260200180610bb0603a913960400191505060405180910390fd5b505050565b600080828401905083811015610ba5576040517f08c379a000000000000000000000000000000000000000000000000000000000815260040180806020018281038252601b8152602001807f536166654d6174683a206164646974696f6e206f766572666c6f77000000000081525060200191505060405180910390fd5b809150509291505056fe416464726573733a20756e61626c6520746f2073656e642076616c75652c20726563697069656e74206d617920686176652072657665727465645365636f6e646172793a206e6577207072696d61727920697320746865207a65726f20616464726573735365636f6e646172793a2063616c6c6572206973206e6f7420746865207072696d617279206163636f756e74a265627a7a723158205a7209e7f65d9dc72257c624744c121b1097cc64b45b119978e33960635ca9e264736f6c634300050c0032",
  "source": "pragma solidity ^0.5.11;\n\nimport '../client/node_modules/@openzeppelin/contracts/payment/escrow/Escrow.sol';\n\ncontract Task{\n\tenum State { created, accepted, completed, reviewed }\n\tuint8[] ratings = [0, 1, 2, 3, 4, 5, 6, 7, 8, 9, 10];\n\t// enum Difficulty { standard, advanced , expert }\n\t// enum Uncertainity { clear, uncertain, unknown }\n\n\tuint8 id;\n\tstring title;\n\tstring description;\n\tState state;\n\tuint deadline;\n\tuint8 rating;\n\tmapping(address => bool) public validators_map;\n\taddress[] public validators;\n\tmapping(address => bool) public workers_map;\n\taddress[] public workers;\n\taddress payable payee;\n\tEscrow escrow;\n\t//uint predecessor_id;\n\t//uint successor_id;\n\n\tmodifier validatorsOnly() {\n\t\t// checks that the sender is a validator of task\n\t\trequire(validators_map[msg.sender], \"caller is not a validator of this task\");\n\t\t_;\n\t}\n\n\tevent TaskCreated(\n\t\tuint id,\n\t\tstring title,\n\t\tState state,\n\t\taddress[] validators\n\t);\n\n\tevent Test(bool is_true);\n\n\tevent TaskState(\n\t\tuint8 id,\n\t\tState state\n\t);\n\n\tevent validatorAdded(\n\t\tuint8 task_id,\n\t\taddress validator\n\t);\n\n\tevent workerAdded(\n\t\tuint8 task_id,\n\t\taddress worker\n\t);\n\n\tevent taskFunded(\n\t\tuint8 task_id,\n\t\taddress sender,\n\t\taddress payee,\n\t\tuint256 amount\n\t);\n\n\tconstructor(uint8 _id, string memory _title, string memory _description) public {\n\t\tid = _id;\n\t\ttitle = _title;\n\t\tdescription = _description;\n\t\tstate = State.created;\n\t\t// new address[](0)\n\t\t// https://medium.com/loom-network/ethereum-solidity-memory-vs-storage-how-to-initialize-an-array-inside-a-struct-184baf6aa2eb\n\t\tvalidators.push(msg.sender);\n\t\tvalidators_map[msg.sender] = true;\n\t\tescrow = new Escrow();\n\t\temit TaskCreated(_id, _title, State.created, validators);\n\t}\n\n\tfunction getValidators() public view returns (address[] memory) {\n\t\treturn validators;\n\t}\n\n\tfunction addValidator(address _validator) public validatorsOnly {\n\t\tvalidators.push(_validator);\n\t\tvalidators_map[_validator] = true;\n\t\temit validatorAdded(id, _validator);\n\t}\n\n\tfunction addWorker(address _worker) public validatorsOnly {\n\t\tworkers.push(_worker);\n\t\temit workerAdded(id, _worker);\n\t}\n\n\tfunction addPayee(address payable _payee) public {\n\t\tpayee = _payee;\n\t}\n\n\tfunction fundTaskEscrow() public payable {\n\t\t// stores funds for the given task its corresponding escrow\n\t\tescrow.deposit.value(msg.value)(payee);\n\t\temit taskFunded({task_id: id, sender: msg.sender, payee: payee, amount: msg.value});\n\t}\n\n\tfunction getTaskDeposit() public view returns (uint256) {\n\t\treturn escrow.depositsOf(payee);\n\t}\n\n\tfunction acceptTask(uint _id) public {\n\n\t}\n\n\tfunction completeTask(uint _id) public {\n\n\t}\n\n\tfunction reviewTask(uint _id) public {\n\n\t}\n\n\tfunction toggleStarted() public {\n\t\tstate = State.accepted;\n\t\t// tasks[_id] = _task;\n\t\temit TaskState({id: id, state: state});\n\t}\n\n}",
  "sourcePath": "/Users/pabrasey/Dropbox/01_Formation/ETHZ/01_Master/02_Projects/Master Thesis/Production/Code/ipd_tasks_react/contracts/Task.sol",
  "compiler": {
    "name": "solc",
    "version": "0.5.12+commit.7709ece9.Emscripten.clang"
  },
  "schemaVersion": "3.0.19",
  "updatedAt": "2019-12-14T14:28:40.664Z",
  "devdoc": {
    "methods": {}
  },
  "userdoc": {
    "methods": {}
  }
}